:020000040800F2
:10000000E04500205D02000837370008FF32000895
:1000100035370008991A0008D93E00080000000092
:10002000000000000000000000000000F73A000897
:100030004D1B000800000000F53A0008693B00086D
:1000400077020008770200087702000877020008AC
:10005000770200087702000877020008770200089C
:10006000770200087702000877020008770200088C
:10007000770200087702000877020008770200087C
:100080007702000877020008651900087702000867
:10009000770200087702000877020008651B000855
:1000A000770200080D3C000877020008770200087C
:1000B000770200087702000877020008770200083C
:1000C000770200087702000877020008770200082C
:1000D000770200087702000877020008770200081C
:1000E0004F1B00087702000877020008770200081B
:1000F00077020008770200087702000877020008FC
:1001000077020008770200087702000877020008EB
:1001100077020008770200087702000877020008DB
:100120009D1A00087702000877020008770200088D
:1001300077020008770200087702000877020008BB
:1001400077020008770200087702000877020008AB
:10015000770200087702000877020008770200089B
:10016000770200087702000877020008770200088B
:1001700077020008770200087702000800000000FC
:1001800077020008770200084B1C012B98BF7047CC
:100190002DE9F003911C9B08B1F80480B1F802909E
:1001A0000A8831F802CC8044814402448444D9F85E
:1001B0000070D8F800601568DCF80040C9F80060ED
:1001C000C8F80070CCF800501460D9F80470D8F862
:1001D00004605568DCF80440C9F80460C8F804708D
:1001E000CCF80450546008315B1ED5D1BDE8F00353
:1001F00070474B1C012B98BF70472DE9F003911CF1
:100200009B08B1F80480B1F802900A8831F802CC5A
:1002100000EB580800EB590900EB520200EB5C0CB4
:10022000D9F80070D8F800601568DCF80040C9F80B
:100230000060C8F80070CCF80050146008315B1EF4
:10024000DFD1BDE8F0037047DFF80CD001F0F4FA1D
:10025000004800477D4A0008E045002006488047E6
:1002600006480047FEE7FEE7FEE7FEE7FEE7FEE79B
:10027000FEE7FEE7FEE7FEE7F13B00084902000863
:100280009FED3D0A5FEA920C57D000BFD0ED000A07
:1002900090ED011A0B1D60EEA00A083041EE010A34
:1002A000F5EEC00AF1EE10FAC6BFB1EEE01A81ED2C
:1002B000001A81ED000AD0ED000A90ED011A191D17
:1002C00060EEA00A083041EE010AF5EEC00AF1EE38
:1002D00010FAC6BFB1EEE01A83ED001A83ED000AF2
:1002E000D0ED000A90ED011A0B1D60EEA00A083057
:1002F00041EE010AF5EEC00AF1EE10FAC6BFB1EE0A
:10030000E01A81ED001A81ED000A90ED001AD0ED9F
:10031000010A191D21EE011A083000EEA01AB5EEEF
:10032000C01AF1EE10FAC6BFF1EEC10AC3ED000A21
:1003300083ED000ABCF1010CA8D112F0030208BF42
:10034000704700BFD0ED000A90ED011A0B4660EE39
:10035000A00A091D083041EE010AF5EEC00AF1EECF
:1003600010FAC6BFB1EEE01A83ED001A83ED000A61
:10037000521EE7D1704700000000000091ED000A16
:10038000D1ED010AD0F814C030EE001A70EEA00AC8
:100390000088B6EE000A431E71EE201A71EE600A64
:1003A0000CF1080001EBC30C61EE801A60EE800ACC
:1003B0000831C2ED001AC2ED010A08329CED003A84
:1003C00091ED001ADCED010AD1ED011A73EE413A0C
:1003D000D0ED002A90ED012A30EEA14A62EEA34A48
:1003E00031EE031A62EE233A71EEE00A22EE042A9D
:1003F00031EE241A62EE842A70EEA30A083031EE40
:10040000021A083170EEE20AACF1080C21EE001A73
:1004100060EE800A82ED001AC2ED010A08325B1E0E
:10042000CCD17047D1ED000A91ED011AD0F814C07B
:10043000008870EE811A70EEC10AB6EE000A431E03
:1004400061EE801A60EE800A0CF10800C2ED001A1D
:10045000C2ED010A01EBC30C01F1080102F108022F
:1004600008BF7047DCED010A9CED003A91ED002ACF
:1004700091ED011A90ED004A72EE431AD0ED013A67
:1004800071EE202A32EE032A64EE214A63EEA11AAD
:1004900071EE600A23EEA25A32EE642A64EE222A3A
:1004A00070EEA10A083032EE452A083170EEE20AF9
:1004B000ACF1080C22EE002A60EE800A82ED002AE0
:1004C000C2ED010A08325B1ECCD170472DE9F04124
:1004D0000446008A1D004FEA500016460F46208051
:1004E0000AD02046FFF79EFF2A4631462046BDE847
:1004F000F041012300F08CBB01232A46204600F086
:1005000087FB324639462046BDE8F04136E7000019
:100510004A08002302800182B2F5807F31D008DCD6
:10052000102A4FD0202A45D0402A3BD0802A31D0F3
:1005300008E0B2F5007F1BD0B2F5806F0FD0B2F5A6
:10054000006F03D04FF0FF33184670474FF46E62D0
:100550008281214A8260214A2149426039E04FF478
:10056000E16282811F4A82601F4A2049426030E076
:100570004FF4E07282811E4A82601E4A1E49426028
:1005800027E04FF4DC7282811C4A82601C4A1D49BC
:1005900042601EE0D02282811B4A82601B4A1C49B5
:1005A000426016E0382282811A4A82601A4A1B4948
:1005B00042600EE030228281194A8260194A1A494B
:1005C000426006E014228281184A8260184A194962
:1005D00042604161B8E7000054FB0008BCA300087A
:1005E0009458010844ED0008BC83000894380108C1
:1005F000C4E90008BC7300089428010854E6000808
:10060000BC6B000894200108B4E40008BC67000833
:10061000941C010844E40008BC650008941A010811
:10062000E4E30008BC64000894190108BCE3000876
:100630003C640008141901082DE9F04106462DED2F
:10064000028B8C460088736801EB800445082746BE
:1006500001EB850004EB85025FEA95087DD000BFC1
:10066000D1ED003AD4ED001A91ED012A94ED013A52
:1006700073EEA16A91ED024A91ED031AD4ED022ABC
:10068000D4ED035A90ED008A90ED017A90ED020AC4
:1006900090ED036A92ED005AD2ED014AD2ED027A52
:1006A000D2ED030AC1ED006A72EE036A73EEE13A1D
:1006B00074EEC71AC1ED016A74EE226A74EE622A02
:1006C00037EEC04AC1ED026A71EE256AC1ED036AD8
:1006D00072EE436A31EE652A38EE051A35EE483A75
:1006E00080ED001A37EE241A80ED011A30EE271A39
:1006F00080ED021A36EE201A80ED031A30EEC61A8B
:1007000093ED000AD3ED010A63EE804A26EEA05A6B
:1007100066EE805A63EEA03A74EE854A75EEE33ACF
:10072000C4ED004A63EE204AC4ED013A61EE803A1E
:1007300061EEA00A23EE000A74EEE31A30EE800A9E
:10074000C2ED001A82ED010A93ED020AD3ED030A0D
:1007500062EE803A22EE203A00E024E062EEA01A37
:1007600022EE002A73EE832A1030103172EE611AE5
:10077000C4ED022A24EE202AC4ED031A61EE001A09
:1007800061EE200A24EE000A103332EE611A1034B2
:1007900030EE800A82ED021A82ED030A1032B8F1BF
:1007A00001087FF45DAF294602236046726800F0BD
:1007B000D5FA72682946BDEC028B3846BDE8F04197
:1007C000022300F0CBBA2DE9F34F2DED048B87B057
:1007D0000B980088470801EB870000EB870606EBC3
:1007E0008705CDE90056DDF82C80A5F1040C0CEB53
:1007F0008703CDE902014FEA5709D8F8048004279E
:10080000CDE90497D1ED000A96ED000A90ED011AAA
:1008100095ED013A70EE802A70EEC03AD1ED010AF2
:1008200096ED010A041F321F30EE802A70EEC01AC6
:1008300031EE230AD0ED000A32EE415A33EEC11AEE
:1008400030EE434A71EEE04A95ED000A70EEA11ACF
:1008500035EE435A74EE805A72EEE04A70EEA20A08
:1008600071EEC01A31EE031A74EEC04A30EE800AFF
:10087000062708F1080A81ED000A90ED010AD5ED7E
:10088000010A08F1100B30EE020A08F1180830EEE8
:10089000200A81ED010A80ED004AC0ED015AC6ED43
:1008A000004A86ED015A85ED001AC5ED011ADDF802
:1008B00010900830083108350836A9F102095FEABE
:1008C000590900F0078100BFD1ED000A96ED000A3A
:1008D000D0ED011AD5ED014A30EE802A30EEC05A33
:1008E000D1ED010A96ED010A70EE802A30EEC01AB1
:1008F00031EE850AD5ED000A30EE644A90ED000A2B
:1009000031EE403A30EE011A73EE205A32EE403AA0
:1009100030EE020A31EE601A73EE603A30EE200AD1
:1009200032EEE13A75EE611A81ED000A90ED010AAE
:10093000D5ED010A33EE643A30EE220A71EEA41AC4
:1009400030EE200A81ED010AD4ED002ADCED004AE8
:1009500054ED010A1CED010A32EEA47A32EEE49A5B
:1009600072EEE42A52ED018A70EE807A30EEC02AEF
:1009700072EEE82AD2ED000A93ED000A13ED018A27
:1009800030EEC05A72EE886A77EEE82A35EE026AD7
:1009900032EEC85A77EE602A72EEC04A70EEC02A74
:1009A00070EE870A72EEC22A30EE800A38EE682AAC
:1009B00084ED000A12ED010A53ED010A32EE492AD4
:1009C00030EE270A30EE200A04ED010A9AED000A03
:1009D000DAED010A64EE007A25EEA07A65EE805A1F
:1009E00024EE204A37EE877A35EEC44A80ED007A4D
:1009F00080ED014A26EEA04A66EE005A66EE200A15
:100A000026EE800A083034EE654A083130EE800A5E
:100A100082ED004A083C02ED010A9BED000ADBED85
:100A2000010ADDF814E023EE804A63EE205A23EE3B
:100A3000003A63EEA03A083A34EE254A0BEB8E0BEF
:100A400033EE633A86ED004A0AF1080A86ED013A70
:100A5000B1EE643A083663EE003A25EE203A25EE10
:100A6000000A64EEA00A33EEC33A30EEC00A8CED01
:100A7000003A0CED010A98ED000AD8ED010A08EBE6
:100A8000870861EE803A21EE203A21EE001A61EEED
:100A9000A01AACF1080C33EE833A31EE611A85ED01
:100AA000003A62EE801A85ED011A22EE201A62EEFB
:100AB000A00A22EE000A083531EE611A30EE800AF3
:100AC00083ED001A03ED010A083BB9F101097FF437
:100AD000FBAE00BFD1ED000A96ED000A91ED011AC0
:100AE000D0ED015A30EE802A70EEC00A96ED010A70
:100AF00095ED015A042371EE001A71EE404A35EE6D
:100B0000A00A90ED001A31EEE54A70EEE50A30EEEB
:100B1000453A95ED000A34EE454A30EE855A74EEBA
:100B2000C12A72EE413A71EE240A31EE021A72EED7
:100B3000802A73EEC03A70EEC00A31EE000A81EDF1
:100B4000000A90ED010A95ED011A30EE210A30EE0F
:100B5000010A81ED010A9AED000A9AED011A63EE8D
:100B6000001A22EE812A22EE800A23EE011A71EE8B
:100B7000821A30EE410AC0ED001A80ED010A9BEDA9
:100B8000000A9BED011A63EE801A24EE012A24EE7E
:100B9000000A23EE811A71EE821A30EE410AC6ED88
:100BA000001A86ED010A98ED010A98ED001A60EE30
:100BB000801A25EE012A60EE810A25EE000A32EE47
:100BC000211A30EEC00A85ED001A85ED010A0B9856
:100BD0004268DDE9030100F0C1F80B980423049991
:100BE0004268029800F0BAF80B980423049942680E
:100BF000019800F0B3F80B98049904234268009818
:100C000007B0BDEC048B02B0BDE8F04F00F0A6B811
:100C10002DE9F0410488984617460D460646012AFC
:100C200020D1281DF4B1A0F1080114F0010F06D065
:100C300091ED020AB1EE400A81ED020A08315FEA45
:100C4000540C0FD091ED020AB1EE400A81ED020A78
:100C500091ED040AB1EE400A81ED040A1031BCF1B5
:100C6000010CEFD1B4F5807F1BD008DC102C13D021
:100C7000202C16D0402C19D0802C0DD01CE0B4F5BF
:100C8000007F13D0B4F5806F06D0B4F5006F08D0A4
:100C9000B4F5805F0AD00FE029463046FFF7CCFC60
:100CA0000AE029463046FFF78EFD05E02146012384
:100CB0002846726800F052F8B8F1000F04D0B189EC
:100CC0002846B268FFF760FA012F18BFBDE8F0812F
:100CD00000EE104AB7EE001A002CF8EE400A81EE42
:100CE000200A08BFBDE8F081A5F1080014F0010F4B
:100CF0000ED0D0ED020A60EE800AC0ED020AD0EDFF
:100D0000030AF1EE600A60EE800AC0ED030A0830C3
:100D1000610808BFBDE8F081D0ED020A60EE800AEC
:100D2000C0ED020AD0ED030AF1EE600A60EE800A1F
:100D3000C0ED030AD0ED040A60EE800AC0ED040A9B
:100D4000D0ED050AF1EE600A60EE800AC0ED050AFA
:100D50001030491EE0D1BDE8F08100002DE9FF4FC1
:100D60002DED108B82B09FEDFEFA0B461C46DB0882
:100D70004FF0000C0CEB030505EB030808EB03092F
:100D800009EB030606EB030A00EBCC0700EBC606F3
:100D900097ED001AD6ED000A0AEB030B00EBC50530
:100DA00000EBCA0A31EE200A71EE601A95ED002AB6
:100DB000DAED000A0BEB030E00EBC80832EE201A46
:100DC00000EBCB0B32EE602AD8ED002ADBED000AF7
:100DD00000EBC90900EBCE0E99ED003A9EED004AFA
:100DE00072EEA03A72EEE02A73EE040A33EE443A51
:100DF00070EE636A70EE233A31EE600A71EE200AFB
:100E000033EEA01A73EEE00A87ED001AC6ED000A71
:100E100097ED011AD6ED010AD5ED013A98ED014A98
:100E200031EE206A71EE600A9AED011A99ED015ACD
:100E300073EE814A73EEC13A9BED011A34EE017AEA
:100E400034EE411A9EED014A75EE045A35EE444ADD
:100E500036EE475A36EE076A34EEE57A74EEA54A66
:100E600076EE245A76EE644AC7ED015AC6ED014A81
:100E700076EE874AC8ED004A76EEC74ACBED004AC7
:100E800075EE404A35EE000AC8ED014A8BED010AC5
:100E900032EE430A32EE032A20EE0F0A62EE0F4AC8
:100EA00033EEC42AA4448C4522EE0F3A33EE842A52
:100EB00030EEC34A62EE0F3A30EE833A31EEC02A8A
:100EC00031EE800A71EE630A31EE231A72EEE41AF3
:100ED00072EEA42A70EE013A30EE410AC5ED003AF6
:100EE0008EED000A32EE200A8AED000A32EE600A28
:100EF00089ED000A33EE620A85ED010A33EE220A1B
:100F00008EED010A34EE610A8AED010A34EE210AFF
:100F100089ED010AFFF42EAF082B3FBF02B0BDECF4
:100F2000108B04B0BDE8F08F4FF0000CCDF804C07A
:100F30004FF0010CCDF800C0DDF804C0159DAC44A5
:100F40004FEA8C0505EB0C07CDF804C007EB0C0944
:100F50004FEA4C0808EB0C0609EB0C0A02EBCC0C30
:100F600002EBC80802EBC60602EBC50502EBC70799
:100F700002EBC90902EBCA0A9CED00DA9CED018A7A
:100F8000D8ED00CA96ED00CAD5ED00BA97ED00BACB
:100F9000D9ED00AADAED008AD8ED017A96ED01AA22
:100FA00095ED017AD7ED016A99ED016ADAED019AC2
:100FB000DDF800C00CEB0307FD1805EB030A0AEB94
:100FC000030808EB030606EB030B00EBCC0900EB70
:100FD000C808D9ED000A98ED000A00EBC70700EB3E
:100FE000C606D7ED001A96ED001A70EE803A0BEBAC
:100FF000030E70EEC00A31EE810A00EBC50500EB6E
:10100000CB0B31EEC11AD5ED001A9BED002A00EB97
:10101000CA0A00EBCE0E31EE824A71EEC21A9AED88
:10102000002ADEED002A32EE223A32EE622A73EE18
:10103000C42A73EE843A30EE435A30EE030A33EE9C
:10104000803A73EEC0DA89ED003A99ED010A98ED25
:10105000013AD7ED013A95ED014A70EE03EA30EE20
:10106000433A96ED010A9AED01EADEED014A33EECC
:10107000809A73EEC03A9BED010A74EE005A34EE8A
:10108000404A3EEE240A7EEE644A3EEEE5EA7EEEFB
:10109000A55A79EE40EA39EE009A32EEAE0A72EEC7
:1010A000EE2A75EE89EA35EEC99A7EEE455AC9ED0B
:1010B00001EA3EEE055A2BEEADEA67EE09EA2BEEA9
:1010C000899A67EE2DDA3EEE2EEA39EE6D9A88EDBA
:1010D00000EA67EEA5DA88ED019A2CEE809A6CEEB4
:1010E000A55A27EE800A39EE2D9A35EEC00A85ED15
:1010F000009A66EE055A85ED010A2AEEA20A2AEE4A
:10110000855A66EE222A30EE250A8BED000A35EE6E
:10111000620A73EEA42A8BED010A31EE420A31EE27
:10112000021A33EEE42A62EE8F3A20EE0F0A21EE25
:101130000F1A22EE0F2A70EEC02A30EE800A71EEEE
:10114000C10A71EE811A33EE421A33EE022A34EEEE
:10115000633A34EE234A70EE043A30EE444A01E03A
:10116000F304353F72EE834A72EEC32A32EE613ADF
:1011700032EE210A71EE601A71EE200A2DEE232A5A
:1011800028EE031A2DEE033A68EE233AA44432EE19
:10119000011A28EE842A8C4587ED001A33EE631A73
:1011A00029EE843A87ED011A29EE801A28EE800A8A
:1011B00032EE011A30EE430A26EEA42A8EED001A12
:1011C0008EED010A2BEE240A26EEA11A6BEE211AEF
:1011D00030EE010A2CEE221A86ED000A31EEC20A28
:1011E0006AEE221A86ED010A2AEE200A6CEE200A27
:1011F00031EE000A8AED000A30EEE10A8AED010ABA
:10120000FFF4D8AEDDF800C00CF1010CCDF800C041
:1012100063453FF691AEDDF854C04FF6FF7404EA23
:10122000CC0CCDF854C0072B3FF6A0AD02B0BDECFE
:10123000108B04B0BDE8F08F2DE9F05F054600206B
:1012400092469B4688460646814640241BE0284637
:1012500041464746224600F005F953465A46C01A11
:10126000914110D311461846224600F0ECF82D1A91
:1012700067EB01084F4622460120002100F0E3F809
:1012800017EB00094E41201EA4F10104DFDC4846A3
:1012900031462A464346BDE8F09FD2B201E000F84D
:1012A000012B491EFBD270470022F6E710B513460A
:1012B0000A4604461946FFF7F0FF204610BD2DE907
:1012C000FE4F81EA030404F0004421F00041009441
:1012D0004FF0000B23F0004350EA01045ED052EAC5
:1012E00003045BD0C3F30A54C1F30A552C44A4F29F
:1012F000F3340194A0FB0254C1F3130141F48011B3
:10130000C3F3130343F4801301FB024400FB034EB9
:10131000840A970A44EA815447EA8357A4FB076882
:1013200002958D0A05FB07854FEA932C04FB0C54AC
:101330002705029D4FEA065847EA1637B5EB080520
:101340006EEB070C870E920E47EA811742EA831272
:10135000A7FB0201B6EB0B0164EB00042B0D43EA83
:101360000C335E1844EB1C50DA465146E7FB020191
:10137000C5F313044FEA0B3343EA14534FEA043224
:10138000019C43EA0603A4F10C040294009CCDE9FD
:1013900000B400F0BDF803B0BDE8F08F00200146B6
:1013A000F9E70EB540F2334102910021CDE9001179
:1013B0000A460B4600F0ACF803B000BD00F0004256
:1013C00030F000400AD0C10D01F56071C0F3160085
:1013D00042EA0151C208400711437047002001460C
:1013E000704701F0004330B421F0004150EA01029F
:1013F00006D00A0DA2F56072C1F31301002A02DCC7
:1014000030BC00207047440F44EAC104C100E0181A
:1014100030BC00EBC25000F035B830B50B46014689
:1014200000202022012409E021FA02F59D4205D383
:1014300003FA02F5491B04FA02F52844151EA2F12D
:101440000102F1DC30BD202A04DB203A00FA02F16F
:10145000002070479140C2F1200320FA03F31943A2
:1014600090407047202A04DB203A21FA02F0002144
:10147000704721FA02F3D040C2F1200291400843A4
:10148000194670470029A8BF7047401C490008BF93
:1014900020F00100704710B4B0FA80FC00FA0CF0A4
:1014A00050EA010404BF10BC704749B1CCF12004DC
:1014B00021FA04F411FA0CF118BF01212143084369
:1014C000A3EB0C01CB1D4FEA00614FEA102042BF95
:1014D000002010BC704700EBC35010440029A4BF8B
:1014E00010BC7047401C490008BF20F0010010BC30
:1014F000704710B5141E73F1000408DA401C41F166
:10150000000192185B411A4301D120F0010010BD87
:101510002DE9F04D92469B4611B1B1FA81F202E0FD
:10152000B0FA80F220329046FFF78DFF04460F4656
:1015300040EA0A0041EA0B0153465A46084313D0D9
:10154000114653EA010019D0C8F140025046FFF796
:1015500089FF05460E46504659464246FFF773FF3F
:10156000084305D0012004E020463946BDE8F08D4F
:101570000020054346EAE0762C4337430A9863058A
:10158000E40AA0EB08000022FD0A44EA47540A30AE
:1015900002D500200146E9E7010510196941DDE99E
:1015A000084500196941BDE8F04DA2E72DE9FE4F5D
:1015B000804681EA0300C00F0C46009021F00041F4
:1015C00023F00045B8EB0200A94105D24046214670
:1015D00090461C460B46024623F00040104347D07D
:1015E000270DC7F30A00C3F30A510290401A019075
:1015F00040286BDAC3F3130040F4801B0098924636
:1016000020B10023D2EB030A63EB0B0B0198594680
:10161000C0F140025046FFF716FF06460D46504601
:101620005946019A00F01AF910EB080061410024B4
:1016300087EA115284EAE7731A4340D0009A62B3F2
:10164000019A012A4FEA075215DC001B61EB0201E7
:101650004FF0004202EA0752CDE90042001C41F57A
:10166000801132462B46FFF753FF03B0BDE8F08FE1
:1016700040462146F9E7001B61EB0201001C41F5E1
:10168000801300185B412018A2F5001747EB0301F7
:1016900040EAD570B6196D4111E06D084FEA360683
:1016A00045EAC0754FEA0752001B61EB0201001CBE
:1016B00041F5801149084FEA300000195141324686
:1016C0002B4603B0BDE8F04FFFF713BF009801228F
:1016D00040000023D0EB020263EBE0730098214648
:1016E0004FEAE074B8EB000061EB0401E9E783F036
:1016F00000435BE781F0004158E72DE9F04D81EAB6
:10170000030404F0004B21F0004514464FF0000A9A
:1017100023F0004150EA050220D054EA01021DD016
:10172000C5F30A570246C5F31303C1F31300C1F30F
:101730000A5640F4801543F48013A7EB0608101BEB
:10174000D64608F2FD3873EB050002D308F1010814
:1017500001E092185B41B8F1000F03DA0020014666
:10176000BDE8F08D00204FF48011064684460EE05F
:10177000171B73EB050705D3121B63EB0503064329
:101780004CEA010C49084FEA300092185B4150EADC
:101790000107EDD152EA030012D082EA040083EA85
:1017A0000501084305D0101BAB4106D201220023DE
:1017B00006E000224FF0004302E06FF001025310F8
:1017C0001AEB06004CEB085110EB0A0041EB0B0141
:1017D000BDE8F04DFFF78DBEC1F30A52C1F313010E
:1017E00040F2FF3341F480119A4202DA00200146B0
:1017F000704740F233439A42A2F2334202DC524233
:10180000FFF730BEFFF71FBE30B5041E71F10004B4
:1018100004DB4FF00044404264EB0101141E73F1FD
:10182000000405DB1C464FF00043524263EB040307
:10183000994208BF904230BD064C074D06E0E06873
:1018400040F0010394E8070098471034AC42F6D307
:10185000FEF7FEFC94980108B4980108202A06DBE4
:10186000CB17203A41FA02F043EAE07306E041FA6E
:1018700002F3D040C2F1200291400843194670475C
:1018800070B58C1810F8015B15F0070301D110F842
:10189000013B2A1106D110F8012B03E010F8016B6F
:1018A00001F8016B5B1EF9D12B0705D40023521EF2
:1018B0000DD401F8013BFAE710F8013BCB1A921C5A
:1018C00003E013F8015B01F8015B521EF9D5A14258
:1018D000D8D3002070BD10B50146806B026C12F0A9
:1018E000500F05D0026CD20626D500F0FCF910BDD1
:1018F000016C41F40071016401688A6812F0405F74
:1019000017D1027EAAB9CA6A12F4700F02D08A688F
:1019100052050ED44A6822F020024A60016C21F47C
:1019200080710164016CC90403D4016C41F00101B0
:10193000016400F0C3F910BD806BC26CBDE81040BB
:101940000846104710B5806B40210164416C41F09E
:101950000401416400F0C7F910BD10B5806B00F0C0
:10196000C1F910BD014800F0BFB90000743C00206F
:10197000464910B54A6822F440324A604A684368D2
:101980001A434A6001684A6822F480724A6001681A
:101990004A68036942EA03224A6001684A6822F001
:1019A00040724A6001684A6883681A434A60016865
:1019B0008A6822F400628A6001688A68C3681A43F0
:1019C0008A60816A6FF07062D14201688A6822F091
:1019D00070628A6001688A680CD0836A1A438A60E0
:1019E00001688A6822F040528A6001688A68C36A86
:1019F0001A4301E022F040528A6001688A6822F0AE
:101A000002028A6001688A68037E42EA43028A60B1
:101A100090F82010002901684A680FD042F4006253
:101A20004A6001684A6822F460424A6001684A6874
:101A3000174C436A04EB43331A4301E022F400627B
:101A40004A600168CA6A22F47002CA620168CA6AFE
:101A5000838B104C04EB03531A43CA6201688A68F3
:101A600022F400728A6001688A6890F8303042EA95
:101A700043228A6001688A6822F480628A60016871
:101A80008A68406942EA8020886010BD00230140D6
:101A900000E0FFFF0000F0FFFEE70000014800F05B
:101AA0004DBB0000BC3C002001681823CAB2103AAC
:101AB000B2FBF3F2054B6FF30901032A9B5CC3658C
:101AC00000D9091D8165084670470000B44B000825
:101AD00010B5014600208B698A6A4FF0C07453B17B
:101AE000B3F5005F15D072B1012A0CD0022A0AD0DA
:101AF000032A09D104E01AB1012A06D0022A03D12F
:101B0000C96AC90100D5012010BDC96AA142FAD035
:101B100010BD002AF7D0012AF2D0022AF3D0032AFE
:101B2000F3D010BD30B50468256825F48025256004
:101B3000046863608368402B036803D09960006881
:101B4000C26030BD9A600068C16030BD704710B59A
:101B50004FF4806000F0C2FCBDE810404FF400601C
:101B600000F0BCBC4FF4007000F0B8BC7047704788
:101B700078B50024009490F83C20012A19D0012265
:101B800080F83C200A6807230568092A13D9EE6803
:101B90000A3A02EB420293409E43EE600B788A6859
:101BA0000A3B03EB43039A400368DD682A43DA608B
:101BB00010E0022078BD2E6902EB420293409E4362
:101BC0002E610B788A6803EB43039A4003681D6912
:101BD0002A431A614A681F23072A13D205686E6BCD
:101BE000521E02EB820293409E436E630B790A8879
:101BF0005B1E92B203EB83039A4003685D6B2A433A
:101C00005A6327E005680D2A12D22E6BD21F02EB11
:101C1000820293409E432E630B790A88DB1F92B2A7
:101C200003EB83039A4003681D6B2A431A6311E098
:101C3000EE6A0D3A02EB820293409E43EE620B790C
:101C40000A880D3B92B203EB83039A400368DD6A76
:101C50002A43DA62164B0568144A9D4206D10D6884
:101C6000122D03D1556845F48005556005689D42E5
:101C700018D10B68102B01D0112B13D1536843F4EA
:101C800000035360096810290CD10A490A4A0968FF
:101C9000B1FBF2F101EB8101490000E0491E009126
:101CA0000029FBD180F83C40002078BD0023014092
:101CB000002001402000002040420F00064910B5DE
:101CC000884208D1054801F002F9034800F0C2F942
:101CD00003490120087010BD743C00205C3D0020C9
:101CE000000000207047704770B504460068016826
:101CF0004268C1F34001C2F3401251B34AB3216CB0
:101D0000C90603D4216C41F400712164816811F08B
:101D1000405F17D1217EA9B9C16A11F4700F02D0BA
:101D2000816849050ED4416821F020014160206C92
:101D300020F480702064206CC00403D4206C40F038
:101D4000010020642046FFF7B9FF21686FF0120000
:101D50000860206801684268C1F38001C2F3C012C4
:101D600089B382B3216CC90603D4216C41F40051BC
:101D70002164816811F4401F1ED1816B11F4401F52
:101D800002D08168490517D44168490514D4816897
:101D900011F0405F10D1217E71B9416821F08001BE
:101DA0004160206C20F480502064206CC00503D476
:101DB000206C40F0010020642046FFF7D8FE216827
:101DC0006FF00C00086020680168426811F0010F94
:101DD000C2F380120ED06AB10068C0070AD0206C2E
:101DE00040F480302064204600F046F821686FF00F
:101DF00001000860206801684268C1F34011C2F325
:101E0000806200290DD0002A0BD0616C41F00201E4
:101E100061646FF0200505602046FFF764FF2068CD
:101E2000056070BD70B504004FF0000503D0206C54
:101E3000002610B107E0012070BD204600F01EF81A
:101E4000666484F83C60206CC00610D4206C20F4DA
:101E5000885040F0020020642046FFF789FD666448
:101E6000206C20F0020040F00100206400E0012519
:101E700084F83C60284670BD7047000070B586B09D
:101E8000064614216846FFF70FFA21493068884258
:101E90003CD120480025016841F480710160006850
:101EA00000F4807005901B481438016841F001016E
:101EB00001600068694600F0010005900220009072
:101EC0000320CDE90105144800F014FB144C13481D
:101ED000C4E900050015A560C4E903504000606135
:101EE0008000A0614011C4E907052046656200F04A
:101EF000F5F908B1FFF73AFEB4630022114612204B
:101F0000A66300F053FC122000F042FC06B070BD46
:101F100000200140443802400000024010640240AA
:101F2000BC3C0020F8B50E4600210446009190F814
:101F30003C00012807D0012084F83C002068836819
:101F4000DB0702D011E00220F8BD836843F00103F3
:101F500083603748374B0068B0FBF3F000EB40007C
:101F600000E0401E00900028FBD120688368DB075A
:101F70005CD0236C40F20165AB4343F4807323646F
:101F80004068400505D5206C20F4005040F4805096
:101F90002064206CC00404D5606C20F006006064EE
:101FA00000E0616484F83C10A16B2448224DC863B2
:101FB000A16B23480864A16B2248C86421686FF0B4
:101FC000220008602068416841F08061416020681B
:101FD000816841F4807181602168134632464C313A
:101FE000A06B00F0E5F968681749C006206806D0C4
:101FF00088421BD1816811F0405F13D016E08842FF
:10200000F8D0124A904203D1D1F80423D206F1D07D
:102010000F4A90420AD1D1F8041301F01F01102990
:10202000E8D303E0816841F0804181600020F8BD81
:102030002000002040420F0000230140D718000874
:102040005B190008451900080020014000210140EB
:102050000022014010B50446002094F83C100129EC
:102060000CD0012184F83C1021688A6822F001021A
:102070008A6021688A68D20702D013E0022010BD6E
:10208000886820F480708860A06B00F00FF82168E9
:102090004A6822F080624A60216C21F4885141F044
:1020A00001012164002184F83C1010BD2DE9F041AC
:1020B0000446876D00F00CFB064694F835000025B9
:1020C000022806D08020606584F834500120BDE8E5
:1020D000F0812068016821F01601016020684169E3
:1020E00021F080014161206C08B9A06C20B120680A
:1020F000016821F0080101602068016821F00101F8
:1021000001600BE000F0E4FA801B052806D92020CE
:10211000606504F8345F03206070D8E720680068C9
:10212000C007EFD194F85C103F208840B86004F8F5
:10213000345F012060700020C9E700002DE9F843FA
:1021400004464FF00009CDF8009063484FF4165153
:10215000A56D0068B0FBF1F72E6894F85C100820BC
:1021600000FA01F131420FD021680A6852070BD5FD
:102170000A6822F004020A6094F85C108840A860A3
:10218000606D40F00100606594F85C104FF001084C
:1021900008FA01F0304208D021684969090604D5DF
:1021A000A860606D40F00200606594F85C10042047
:1021B0008840304208D021680968890704D5A860A2
:1021C000606D40F00400606594F85C101020884059
:1021D000304218D021680968090714D5A860206822
:1021E0000168490304D50068000308D5A16C07E025
:1021F0000168C90503D4016821F008010160216C60
:1022000009B12046884794F85C102020884030426D
:1022100031D021680968C9062DD5A86094F8350029
:1022200005282068016806D0490347D500680003E7
:102230001DD4616C1CE021F0160101602068416929
:1022400021F080014161206C08B9A06C20B12068A8
:10225000016821F00801016094F85C103F2088407B
:10226000A86084F8349084F83580216D1FE0E16B1C
:1022700009B120468847606D00282BD0606DC007EB
:1022800014D0052084F835002068016821F0010190
:1022900001600098401C0090B84203D82068006894
:1022A000C007F6D184F8349084F83580E16C0029B9
:1022B00010D001B02046BDE8F04308470168C905C9
:1022C000D5D4016821F01001016084F8349084F8BD
:1022D0003580CCE7BDE8F883200000202DE9F041EF
:1022E000044600F0F5F906465CB1002584F8345048
:1022F000022084F835002068016821F001010160A6
:102300000DE00120BDE8F08100F0E2F9801B052816
:1023100005D920206065032084F83500F2E72068A5
:102320000068C007F0D12268116820480140D4E954
:1023300001031843D4E90336334318436369184350
:10234000A3691843E3691843236A18430843616A81
:10235000042903D1D4E90B13194308431060206802
:102360004069666A20F0070130460E4301270428C1
:102370000CD1A06A0643E06A40B12046FFF7A8FBF3
:1023800020B14020606584F83570BAE72068466166
:102390002046FFF789FB94F85C203F219140816043
:1023A000656584F835700020ACE700003F8010F0D0
:1023B0002DE9F0410446866D90F83400002501288F
:1023C0000DD0012084F8340094F835700020012FDE
:1023D00007D084F8340002252846BDE8F0810220A9
:1023E000FBE7022784F8357060652046FFF79AFB0B
:1023F00094F85C103F208840B0602068016841F08C
:1024000016010160206C20B12068016841F00801CC
:1024100001602068016841F001010160DCE7000013
:1024200070B5044600F054F90546601C02D004481B
:102430000078044400F04CF9401BA042FAD370BD70
:102440001400002070B54FF40075204CA8420ED047
:102450002515A84224D0E514A84235D10A20FFF75B
:10246000DFFF29462046BDE8704000F01FB9142068
:10247000FFF7D6FF2946204600F018F9002823D19F
:1024800013490878042809D0401C087010480978BE
:10249000401C405CBDE8704001F02EBB0020F4E71A
:1024A0000A20FFF7BDFF2946204600F0FFF800286C
:1024B0000AD10848017809B902210170BDE87040CD
:1024C0002021054800F0F7B870BD00000018024058
:1024D0000C0000200000002000080240044910B554
:1024E0000A68024202D00860FFF7ACFF10BD00008E
:1024F000143C01402DE9F84F00224FF0010803255C
:102500004FF00F0E0B6808FA02F42340A3426ED17D
:102510004E68012E05D0022E03D0112E01D0122EAE
:1025200012D186684FEA420C05FA0CF7BE43CF6819
:1025300007FA0CF7374387604668A6430C79C4F363
:102540000014944034434460C668570005FA07FC01
:102550008C6826EA0C06BC403443C4604C68022CEC
:1025600001D0122C13D1D40800EB8404A346D4F874
:10257000209054074FEAD46A0EFA0AF629EA0609AF
:102580000E6906FA0AF646EA0906CBF820600668E4
:102590000C7926EA0C0604F00304BC4034430460C2
:1025A0004C68E40065D5364C266846F480462660C3
:1025B000246822F0030604F480440094314C34442F
:1025C000A446D4F808489607370F0EFA07F6B44326
:1025D0002D4EB04201D1002624E02C4EB04201D154
:1025E00001261FE02A4EB04202D102261AE040E046
:1025F000284EB04201D1032614E0274EB04201D14B
:1026000004260FE0254EB04201D105260AE0244EF3
:10261000B04201D1062605E0224EB04201D1072684
:1026200000E00826BE402643CCF808681E4E3468F9
:102630004F689C43FF0300D51C4334601A4C241D93
:1026400026684F689E43BF0300D51E432660164E82
:10265000083634684F689C43FF0200D51C43346041
:10266000114E0C3634684F689C43BF0200D51C43A2
:102670003460521C102AFFF445AFBDE8F88F00000B
:102680004438024000300140000002400004024093
:1026900000080240000C02400010024000140240FA
:1026A00000180240001C0240003C01400069084044
:1026B00000D001207047426931EA020200D10904CA
:1026C000816170470AB1816170470904FBE700002E
:1026D00001488068704700001400002002488168AB
:1026E0000278114481607047140000200B4810B537
:1026F000016841F400710160016841F4806101608A
:10270000016841F480710160032000F06FF800203F
:1027100000F006F800F024F8002010BD003C024054
:1027200070B50D4D04464FF47A712878B1FBF0F086
:102730000A490968B1FBF0F000F002FB48B9102C1F
:1027400007D200222146501E00F030F800206C60B5
:1027500070BD012070BD000014000020200000208A
:102760000A4808B5016841F480410160006800F43E
:10277000804000900548001F016841F080510160D1
:10278000006800F08050009008BD0000443802400E
:10279000002809DB00F01F02012191404009800060
:1027A00000F1E020C0F8001170470000F0B40E4BBB
:1027B0001B680C46C3F30223C3F10705042D00D99F
:1027C0000425191D072901D2002300E0DB1E012684
:1027D00006FA05F1491E214099409E40761E16409A
:1027E0003143F0BC01F0A2BB0CED00E0064900F063
:1027F000070208684FF6FF03184040EA0220034A28
:1028000010430860704700000CED00E00000FA057E
:102810002DE9F0470E46050065D0DFF81481D8F8A1
:102820000000F7B200F00F00B04207D288F8007045
:10283000D8F8000000F00F00B04254D128683D4C99
:10284000810712D5400703D5206840F4E05020608E
:102850002878000703D5206840F460402060206895
:10286000A96820F0F000084320602878C0072DD028
:10287000304968680839012812D0022813D003288B
:1028800011D00968890700292DDA216821F0030198
:1028900001432160FFF71CFF814641F2883A0EE0B8
:1028A00009688903EFE709688901ECE7FFF710FF82
:1028B000A0EB0901514502D90320BDE8F08720684B
:1028C000696800F00C00B0EB810FEFD1D8F8001070
:1028D000404601F00F01B14207D90770006800F0CF
:1028E0000F00B04201D00120E7E72878400705D566
:1028F0002068E96820F4E050084320602878000749
:1029000006D52068296920F4604040EAC1002060B3
:1029100000F038F82168084AC1F30311515CC8403F
:102920000649086006480068FFF7FAFE0020C4E781
:10293000003C024008380240BC4B00082000002048
:10294000180000200448054900680968044AC1F3DA
:102950008221515CC84070472000002008380240A6
:10296000CC4B00080448054900680968044AC1F3D3
:102970004231515CC84070472000002008380240B6
:10298000CC4B0008154810B5006810F00C02144834
:1029900013D04110042A0FD0082A0ED10F4C241F47
:1029A0002268236802F03F025B0207D52068C0F36B
:1029B0008810A0FB010106E0084610BD2168C1F3A4
:1029C0008811A1FB00010023FEF736FC2168C1F34A
:1029D0000141491C4900B0FBF1F010BD083802402C
:1029E0000024F4002DE9F84F04006ED02078DFF8C1
:1029F0003C93C007A9F104054AD009F1040001681D
:102A0000C1F38101012908D00068C0F381000228C8
:102A10000AD1D9F80000400206D52868800337D5CE
:102A200060680028E1D033E06068B0F5803F10D0E6
:102A3000B0F5A02F286810D020F4803028602868D6
:102A400020F4802028606068A8B1FFF741FE0646A8
:102A50000DE0286840F48030F4E740F480202860DE
:102A6000F7E700BFFFF734FE801B642873D828689F
:102A70008003F7D50CE0FFF72BFE064605E000BF0C
:102A8000FFF726FE801B6428F0D828688003F7D45F
:102A90002078DFF89C8280074FF0000A3ED5A348DB
:102AA000001D016811F00C0F08D00068C0F3810010
:102AB00002280BD1D9F80000400207D4286880070B
:102AC00016D5E068012800D112E02BE1E068B8B12A
:102AD0000120C8F80000FFF7FBFD064605E000BF37
:102AE000FFF7F6FD801B0228C0D828688007F7D5BD
:102AF0002868216920F0F80040EAC10028600DE054
:102B0000C8F800A0FFF7E4FD064604E0FFF7E0FD8B
:102B1000801B02281FD828688007F7D42078000778
:102B200022D5824E83486169703671B101210160FE
:102B3000FFF7CEFD074604E0FFF7CAFDC01B0228E1
:102B400009D830688007F7D50EE0C0F800A0FFF77D
:102B5000BFFD074605E082E0FFF7BAFDC01B022873
:102B60007DD830688007F7D42078400768D5DFF833
:102B7000BCB100270BF13C0BDBF80000C0000BD40C
:102B8000DBF8001041F08051CBF80010DBF80000BA
:102B9000012700F080500090674E3068C00510D4C7
:102BA000306840F480703060FFF792FD009005E0DF
:102BB000FFF78EFD0099401A022850D83068C005F2
:102BC000F6D55A4EA0686C3601280FD0052830681B
:102BD00010D020F001003060306820F00400306038
:102BE000A068B8B1FFF774FD00900FE0306840F0C6
:102BF0000100F4E740F004003060F7E7FFF768FDFC
:102C00000099411A41F28830814266D830688007C5
:102C1000F4D50EE0FFF75CFD009007E0FFF758FDEC
:102C20000099411A41F28830814256D830688007B5
:102C3000F4D42FB1DBF8001021F08051CBF8001054
:102C4000A069C8B33949091D0968C1F38101022986
:102C50004AD00228504607D0C8F8600000E03CE0A7
:102C6000FFF736FD04463BE04746C8F86000FFF733
:102C70002FFD064605E000BFFFF72AFD801B022856
:102C80002BD828688001F7D4D4E907010843A16A4A
:102C90002A4A490802EB0141626A41EA821108436B
:102CA00094F82C1040EA0161C9F800100120386640
:102CB000FFF70EFD044606E036E000BFFFF708FD13
:102CC000001B022809D828688001F7D52CE000BF36
:102CD000FFF7FEFC001B022802D90320BDE8F88F95
:102CE00028688001F4D41FE00128F7D0D9F800004B
:102CF000E26900F48001914214D1226A00F03F01A0
:102D000091420FD147F6C071626A0140914209D1E8
:102D1000A26A00F44031914204D1E16A00F070608F
:102D2000884201D00120D9E70020D7E704380240CB
:102D300000004742800E4742007000400000FFFF45
:102D400010B5401EB0F1807F01D3012010BD4FF0BF
:102D5000E02460610F21601701F0E8F80020A06115
:102D600007202061002010BD7047704770B590F8B3
:102D70003C20012A32D0012480F83C40022280F815
:102D80003D2003685A689D6822F070060A68324345
:102D90005A60134B02689A4214D0B2F1804F11D09E
:102DA000104B9A420ED0104B9A420BD00F4B9A42C6
:102DB00008D00F4B9A4205D00E4B9A4202D00E4BD0
:102DC0009A4204D1496825F080031943916080F844
:102DD0003D40002180F83C10084670BD022070BDC7
:102DE000000001400004004000080040000C0040CA
:102DF00000040140004001400018004010B50400EC
:102E000003D094F83D0010B107E0012010BD002070
:102E100084F83C00204600F00DF8022084F83D00C4
:102E2000211D206800F0F8FE012084F83D000020FC
:102E300010BD000008B500681149884212D1114840
:102E4000016841F0010101600068002200F001000A
:102E5000009001211920FFF7A9FCBDE808401920C6
:102E6000FFF796BCB0F1804F09D10648001F0168FA
:102E700041F001010160006800F00100009008BD10
:102E80000000014044380240022180F83D100168F2
:102E90008A6802F00702062A03D00A6842F001029B
:102EA0000A60012180F83D10002070470168CA685F
:102EB00042F00102CA600068816801F0070106293A
:102EC00003D0016841F00101016000207047022138
:102ED00080F83D1001680A6A41F211131A4207D1C5
:102EE0000A6A9B101A4203D10A6822F001020A60A2
:102EF000012180F83D100020704770B5044690F81D
:102F00003C00012817D0012584F83C50022084F8A9
:102F10003D002068826822F0770222F47F428260BE
:102F20000868502830D00DDC20284DD005DC98B33F
:102F300010283BD148E0022070BD302844D0402802
:102F400034D139E0602828D0702806D0B0F5805FF1
:102F50002CD0B0F5005F29D10AE0CB68D1E901217E
:102F6000206800F0BDFE2068816841F0770109E02B
:102F7000CB68D1E90121206800F0B2FE20688168A9
:102F800041F48041816011E0CA684968206800F01E
:102F9000B9FE5021206807E016E0CA684968206839
:102FA00000F0C1FE6021206800F0A4FE84F83D50CE
:102FB000002084F83C0070BDCA684968206800F0B1
:102FC000A1FE40212068EFE7226801461046EBE7AA
:102FD000704770B50446006801694FF00005C943A9
:102FE000890715D4C168C943890711D4E91E016155
:102FF00001202077206880698007204602D0FFF7F3
:10300000E7FF04E000F098F8204600F096F82577F6
:1030100020680169C943490717D4C168C9434907F2
:1030200013D46FF0040101610220207720688069C9
:1030300010F4407F204602D0FFF7CAFF04E000F002
:103040007BF8204600F079F8257720680169C943AC
:10305000090716D4C168C943090712D46FF00801E3
:103060000161042020772068C0698007204602D0D3
:10307000FFF7AEFF04E000F05FF8204600F05DF8D7
:10308000257720680169C943C90617D4C168C943B7
:10309000C90613D46FF01001016108202077206861
:1030A000C06910F4407F204602D0FFF791FF04E092
:1030B00000F042F8204600F040F8257720680169CA
:1030C000C943C90708D1C168C943C90704D1891ECA
:1030D0000161204600F032F820680169C943090601
:1030E00009D4C168C943090605D46FF080010161A4
:1030F0002046FFF739FE20680169C943490609D413
:10310000C168C943490605D46FF0400101612046FA
:1031100000F030F820680169C94389060BD4C16802
:10312000C943890607D46FF0200101612046BDE83C
:103130007040FFF71ABE70BD704770470A4910B55E
:10314000884210D1094CA068401CA060B0F5FA7FFD
:1031500009D180210648FFF7AEFA207808B902208D
:1031600020700020A06010BD1C3D00200000002049
:1031700000080240704770B5040004D094F839008C
:10318000002510B106E0012070BD84F838502046BB
:1031900000F022F8242084F839002068C16821F466
:1031A0000051C160204600F0D1FD2068016921F482
:1031B000904101612068416921F02A014161206844
:1031C000C16841F40051C160E563202084F83900F2
:1031D00084F83A00002070BD10B586B00446142172
:1031E0006846FEF761F814492068884221D11348E7
:1031F0000021026842F010020260006800F0100036
:1032000005900E481438026842F00102026000681E
:1032100000F0010005904FF4C06000900220CDE95D
:103220000101032003900720049069460448FFF73A
:1032300061F906B010BD00000010014044380240A2
:10324000000002402DE9F843044690F839001F467B
:1032500016460D46202850D1B5B1AEB194F83800CD
:1032600001284AD0012084F838004FF00008C4F843
:103270003C80212084F83900FFF72AFAA684814691
:10328000E68484F8388026E00120BDE8F883E08CED
:10329000401EE084A0684B46B0F5805F4FF000020E
:1032A0004FF080012046009703D000F0E3FDE8B91D
:1032B0000DE000F0DFFDC8B928882168C0F30800E0
:1032C0004860206908B16D1C05E0AD1C03E0216871
:1032D00015F8010B4860E08C0028D8D14B4600223D
:1032E00040212046009700F0C5FD08B10320CCE73F
:1032F000202084F839000020C7E70220C5E7FEE758
:1033000030B5124887B0016841F0080101600068DB
:10331000012400F0080005904FF48050CDE900042E
:103320000320CDE902400A4D69462846FFF7E2F83E
:103330006003009069462846FFF7DCF80548C0F8AE
:10334000B042C0F8B44207B030BD0000303802408F
:10335000000C0240008041422DE9F041064600F099
:10336000B9FB114C0027C4F8B0723D464FF001087C
:10337000300602D5C4F8B48201E0C4F8B472700615
:10338000060E052001F000FBC4F8B082052001F014
:10339000FBFAC4F8B072052001F0F6FA6D1CEDB22C
:1033A000082DE5D3BDE8F0810080414270B500F002
:1033B00091FB094C0120C4F8B402C4F8B002022009
:1033C00004F52C7401F0E0FA00256560022001F09C
:1033D000DBFA256070BD00000080414210B500F0AE
:1033E00079FB094C0020C4F8B002C4F8B4020220F2
:1033F00004F52C7401F0C8FA012020606060BDE87B
:103400001040022001F0C0BA0080414270B5002493
:1034100000F01EF80D4D0126C5F8B462304601F0EB
:10342000B3FAC5F8B062012001F0AEFA07E0641CFF
:10343000E4B2FA2C03D9FFF7D1FF012070BDD5F813
:1034400034020028F3D1C5F8B00270BD00804142BB
:1034500000B585B04FF400500090002001906946FF
:103460000248FFF747F805B000BD0000000C02401D
:103470007FB50024164800940194029413490394E4
:10348000016001254FF480310561C0E90114047623
:1034900080F820400903C162C5614FF0C061C4607B
:1034A000816280F830504561FEF7BCFC08B1FEF740
:1034B0005DFB0095CDE9015469460548FEF758FBD0
:1034C000002801D0FEF752FB7FBD00000020014024
:1034D000743C0020094808B5016841F4800101608E
:1034E0000068002200F48000009011463820FFF7A9
:1034F0005DF9BDE808403820FFF74AB9303802408E
:103500002DE9F04186B014216846FDF7CDFE424812
:103510000024016841F010010160016801F0100110
:103520000591016841F004010160016801F00401A6
:103530000591016841F020010160016801F020015E
:103540000591016841F080010160016801F080018E
:103550000591016841F001010160016801F001017C
:103560000591016841F04001016000682B4E00F0B8
:1035700040000590002254213046FFF7A3F8284F61
:10358000002244F220013846FFF79CF8DFF89480CF
:10359000002215214046FFF795F80122D021384638
:1035A000FFF790F8542000900125CDE901546946B9
:1035B00030460394FEF79EFF44F2F0000090CDE900
:1035C0000154694638460394FEF794FF1520009095
:1035D000CDE90154694640460394FEF78BFF4FF452
:1035E000606000901048CDE9010569460F48FEF77C
:1035F00081FF002202211720FFF7D8F81720FFF7DC
:10360000C7F8002202212820FFF7D0F82820FFF772
:10361000BFF806B0BDE8F08130380240001002402B
:10362000000802400014024000002110001802406F
:1036300010B586B0002417480094019402940394B6
:103640000494134905940160A721C0E9011440F2D4
:10365000E731C0E9031444618461FFF7CFFB08B18F
:10366000FEF784FA4FF48050009069460948FFF74E
:1036700044FC08B1FEF77AFA049404A905480594BD
:10368000FFF774FB002801D0FEF770FA06B010BDFA
:10369000000001401C3D002010B586B000241648F3
:1036A000009401940294039404944FF08041059493
:1036B00001601821C0E90114D121C0E9031484611B
:1036C000FFF79CFB08B1FEF751FA4FF480500090D1
:1036D00069460948FFF711FC08B1FEF747FA2020B8
:1036E000CDE9040404A90448FFF740FB002801D0F9
:1036F000FEF73CFA06B010BD5C3D00200C4810B54A
:103700000A4901604FF4E1314160002181600C22DF
:10371000C160C0E904128161C161FFF72CFD00287E
:1037200003D0BDE81040FEF721BA10BD00100140E3
:103730009C3D0020FEE7704730B40021084B0A464C
:103740005FF0000003EBC004401CC0B2625480284C
:10375000F8D3491CC9B20829F2D330BC00F09AB89A
:10376000DC3D0020CA0801F0070301219940044B09
:1037700003EBC003985C61EA0000C04398547047B3
:10378000DC3D0020CA0801F0070301219940034BEA
:1037900003EBC000835C0B4383547047DC3D002087
:1037A00010B54FF4FA7001F0E1F80021AE2000F0FE
:1037B00075F90021084600F071F90021102000F091
:1037C0006DF90021402000F069F90021812000F00E
:1037D00065F90021CF2000F061F90021A12000F05F
:1037E0005DF90021C82000F059F90021A62000F061
:1037F00055F90021A82000F051F900213F2000F0E8
:103800004DF90021D32000F049F90021084600F0CD
:1038100045F90021D52000F041F90021802000F079
:103820003DF90021D92000F039F90021F12000F004
:1038300035F90021DA2000F031F90021122000F0E2
:103840002DF90021DB2000F029F90021402000F0B3
:1038500025F90021202000F021F90021022000F0AC
:103860001DF900218D2000F019F90021142000F02D
:1038700015F90021A42000F011F90021A62000F084
:103880000DF90021AF2000F009F9BDE81040FFF765
:1038900053BF000070B5114E002400BF04F1B0000A
:1038A000C0B2002100F0FAF80021084600F0F6F856
:1038B0000021102000F0F2F85FF0000506EBC500D3
:1038C0000121005D00F0EAF86D1CEDB2802DF5D30A
:1038D000641CE4B2082CE1D370BD0000DC3D002084
:1038E0002DE9FF4F1D460C468946580700D00120A0
:1038F00000EBD500690810FB01F0203A00F0FF0A48
:1039000002F0FF0B002637E00C2D12D0102D16D040
:10391000182D33D11A490BEBCB0001EB80004FF08F
:103920000008875D2146380600980CD5FFF72AFF6E
:103930000BE014480BEB4B0100EB8100EFE7124961
:1039400001EB0B10EBE7FFF70DFF7806641C070E89
:10395000E4B2A4EB0900A84205D100984C46401CF3
:10396000C0B2009006E008F1010000F0FF08B8F1D5
:10397000080FD7D3761CF6B25645C5D3BDE8FF8FE6
:1039800038560008D44B0008485000082DE9FF4F76
:1039900083B081460020CDE901091C4688468B464C
:1039A0004FEAD30A4BE0059810FB04F1019800EBB5
:1039B000D100C0B200900198401CC0B20025019017
:1039C0003BE00C2C13D0102C16D0182C3CD10098B6
:1039D0001F4900EBC00000BF01EBC0000027465D9F
:1039E0004146F00748460CD0FFF7CCFE0BE00098AC
:1039F000184900EB4000EFE71749009801EB001071
:103A0000ECE7FFF7AFFE7F1C760808F10100FFB27C
:103A100000F0FF08082FE3D309F10100029900F03C
:103A2000FF09A9EB0100A04204D10BF1080089466F
:103A300000F0FF0B6D1CD846EDB2A542C1D3BAF120
:103A4000010101F0FF0AAED207B0BDE8F08F00001F
:103A50006403002094630008240000202DE9F04155
:103A60001E46154688460446C3F180070FE03346DC
:103A700041462046FFF734FF04EB5600C4B2A7428C
:103A800004DA08F10200002400F0FF086D1C2A7817
:103A9000A2F120005E28EAD9BDE8F08170B50C469D
:103AA0000546FFF783FC7820FFF756FCFFF7AEFCD6
:103AB0000CB1402000E00020FFF74EFCFFF7A6FC11
:103AC0002846FFF749FCFFF7A1FCBDE87040FFF76F
:103AD00085BC000000B585B04FF400500090012077
:103AE000019069460248FEF705FD05B000BD0000E3
:103AF000000C02407047704770B5184D0446C0F383
:103B0000801204212846FEF7DDFDC4F34012102187
:103B10002846FEF7D7FDC4F3001240212846FEF7E1
:103B2000D1FDC4F3C0024FF480410D48FEF7CAFD39
:103B30000C4DC4F3800201212846FEF7C3FDC4F3F7
:103B4000400204212846FEF7BDFD04F0010228468C
:103B5000BDE870401021FEF7B5BD00000010024026
:103B60000008024000140240FEF7B8BD30B593B023
:103B700030216846FDF798FB14210CA8FDF794FB53
:103B800019480025016841F080510160006800F08B
:103B9000805011901548016841F48041016000682F
:103BA000022400F480401190012000900004019054
:103BB0008001CDE9064008AA0420A82182E813006C
:103BC0000B906846FEF70EFF0CA90F2081E831002C
:103BD0004FF4A0500F90E002109005210CA8FEF7C2
:103BE00017FE13B030BD00004038024000700040A6
:103BF0000548016841F47001016003494FF000601D
:103C0000803908607047000088ED00E00148FFF748
:103C1000E0B900001C3D0020F0B50268254C264D9F
:103C2000264E274F274B4FF0804CA04209D06045CD
:103C300007D0A84205D0B04203D0B84201D0984284
:103C400004D122F0700E4A6842EA0E02A0421BD054
:103C5000604519D0A84217D0B04215D0B84213D051
:103C6000984211D0184DA8420ED0184DA8420BD042
:103C7000174DA84208D0174DA84205D0164DA842AE
:103C800002D0164DA84203D122F44075CA682A43D7
:103C90004D6922F080022A4302608A68C2620A6883
:103CA0008262A04201D0984201D1096901630121D9
:103CB0004161F0BD000001400004004000080040E8
:103CC000000C00400004014000400140004401405D
:103CD0000048014000180040001C00400020004047
:103CE00010B5846842EA032224F47F440A43224345
:103CF000826010BD826822F070020A4342F0070120
:103D00008160704710B5036A046A24F001040462FC
:103D1000846924F0F00444EA021423F00A020A43FE
:103D20008461026210BD10B5036A23F010030362C0
:103D30008369046A23F4704343EA023224F0A00347
:103D400043EA01118261016210BD00002DE9F041DA
:103D5000044600680169E26821F4405111430161A1
:103D60002169A068E2690843616911430843216839
:103D7000CA6849F20C639A430243CA6020684169E9
:103D8000A26921F4407111434161E069192764255A
:103D90003226B0F5004F354A354920684FF000080B
:103DA00006D0884201D0904236D1FEF7DBFD35E0E7
:103DB000884201D0904202D1FEF7D4FD01E0FEF727
:103DC000C1FD61684A18A0FB070148EB0803FDF735
:103DD00033FA0146B0FBF5F00201B1FBF5F06FF0EC
:103DE0001803584301EB800006EBC000B0FBF5F070
:103DF00000F0F80002EB4002B1FBF5F0584301EB94
:103E0000800006EBC000B0FBF5F000F00700216871
:103E100010448860BDE8F081FEF794FD61688B0F67
:103E20008A00A0FB0701FDF707FA0146B0FBF5F099
:103E30006FF01802504301EB800006EB0010B0FB5E
:103E4000F5F000F0F002B1FBF5F002EB0012B1FB6F
:103E5000F5F06FF01803584301EB800006EB0010FB
:103E6000B0FBF5F000F00F00D1E7000000140140B6
:103E7000001001402DE9F041984617460E460446D1
:103E8000069D1DE0681C1BD02DB1FEF721FCA0EBA8
:103E90000800A84214D92068C16821F4D071C1601B
:103EA0002068416921F001014161202084F8390036
:103EB00084F83A00002084F838000320BDE8F0813F
:103EC0002068006836EA000004D00020B842D9D04B
:103ED0000020F3E70120F9E7FEE700000FB4054BEF
:103EE00010B503A9044A029800F024F910BC5DF84B
:103EF00014FB0000654A0008400400200FB41CB504
:103F00000246002007AC00290BD0491ECDE9002154
:103F1000054B6A462146069800F00CF9009A0021EC
:103F200011701CBC5DF814FB634800080907090EFA
:103F3000002804DB00F1E02080F80014704700F056
:103F40000F0000F1E02080F8141D704710B52DED32
:103F5000028BB1EEC08A18EE100A20F00040C0F1CA
:103F6000FF40C00F0AD010EE100A20F00040C0F150
:103F7000FF40C00F04BF012000F014F8B0EE480A63
:103F8000BDEC028B10BD02E008C8121F08C1002A58
:103F9000FAD170477047002001E001C1121F002ACA
:103FA000FBD17047014908607047000044040020BD
:103FB0002DE9FF5F82B00021DDE90430020DDDF85C
:103FC00040B0034318D044F61050A2F2FF324243EF
:103FD0001514119801281FD0A5EB0B00401C5FEAB7
:103FE000000A4FF000064E4FDFF83891B0465046B9
:103FF00015D5CAF1000413E0119801244AA3012841
:1040000001D16FEA0B010298119AC0E90031C0E9B1
:10401000024206B0BDE8F09FCBF10000DFE70446A6
:104020000021404A491842EB0450CDE9001012E04B
:10403000E00707D032463B4640464946FDF73FF988
:104040008046894632463B4610461946FDF737F909
:1040500006460F466410002CEAD1DDE90401DDE9D3
:104060000023BAF1000F06DAFDF729F942464B4664
:10407000FDF725F905E0FDF740FB42464B46FDF70D
:104080003CFB04460E460022284BFDF7BDFB03D83F
:104090004FF0FF30014607E00022254B2046314615
:1040A000FDF784FAFDF798FB102409E0002C0ADBE9
:1040B0000A220023FDF7C0F8039B30321A55641E14
:1040C00050EA0102F2D1641C039AC4F111031444B2
:1040D000119A012A03D0012208430DD10AE00843B6
:1040E00004D000204FF0110B119072E7A3EB0B05E9
:1040F0006D1E0DE05B4504DD4FF0000205F101058A
:1041000004E003DA4FF00002A5F10105002AECD02B
:1041100002981199C0E90231C0E9004579E7000031
:10412000000014400000F03F300000000000F043A9
:104130000000E03F2DE9FF4F95B09B4689460646BB
:1041400000250FE2252877D100242746F84A0121CF
:10415000059400E0044316F8013F203B01FA03F008
:104160001042F7D130782A2811D06FF02F03307821
:10417000A0F13002092A16D8059A44F0020402EB95
:10418000820203EB42021044761C0590EFE759F8D7
:10419000042B0592002A03DA504244F4005405909F
:1041A00044F00204761C30782E2816D116F8010F40
:1041B00044F004042A280DD06FF02F023078A0F1CB
:1041C0003003092B09D807EB870302EB4303C71819
:1041D000761CF3E759F8047B761C30786C280FD0F6
:1041E00006DC4C2817D068280DD06A2814D104E0CA
:1041F000742810D07A280FD10DE044F400140AE09E
:1042000044F4801401E044F440147278824202D1F4
:1042100004F58014761C761C307866280BD013DCED
:10422000582877D009DC002875D04528F6D04628D4
:10423000F4D047281AD19DE118E0632835D06428CE
:1042400079D0652812D195E1702873D008DC6728F1
:10425000F1D069286FD06E280DD06F2806D1B5E057
:1042600073282CD0752875D0782874D05A461799A1
:1042700090476D1C75E1C4F30250022809D0032851
:104280000DD0D9F8001004280DD00D6009F10409F3
:1042900067E1D9F80010EA17C1E90052F6E7D9F84A
:1042A00000100D80F2E70D70F0E719F8041B8DF88F
:1042B000001000208DF80100EA46012003E059F8C3
:1042C00004AB4FF0FF3061074FF0000102D40DE066
:1042D00008F101018846B9420FDA8045F8DB1AF887
:1042E00008100029F4D108E008F101018846814254
:1042F000FADB1AF808100029F6D105985B46A0EB06
:10430000080721463846179A00F094FA284400EB33
:10431000080507E04DE029E10DE01AF8010B5A46C7
:1043200017999047B8F10108F7D25B462146384605
:10433000179A13E142E00A220092C4F302524FF0AE
:10434000000A022A08D059F804CB032A4FEAEC717C
:104350000AD00DE029E02AE009F1070121F0070267
:10436000F2E802C1914609E00FFA8CFC4FEAEC71C9
:10437000042A03D14FFA8CFC4FEAEC71002907DACA
:104380000A460021DCF1000C61EB02012D2202E063
:10439000220504D52B228DF80420012203E0E20738
:1043A00001D02022F7E7904659E00A2102E01022CE
:1043B0000DE010214FF0000A00910BE010224FF0A9
:1043C000000A44F004040827009203E008224FF09A
:1043D000000A0092C4F30252022A05D059F804CB15
:1043E0000021032A08D009E009F1070121F00702A2
:1043F000F2E802C1914605E01FFA8CFC042A01D1C3
:104400000CF0FF0C4FF00008220728D5702806D0CA
:10441000009B83F0100353EA0A0305D00EE040220C
:104420008DF80420012208E05CEA010206D0302267
:104430008DF804208DF8050002229046009B83F041
:10444000080353EA0A030AD15CEA010201D16207B8
:1044500005D530228DF804204FF001087F1E582822
:1044600004D034A003900EA802900DE036A0F9E726
:1044700053466046009AFCF7DFFE84460398825C50
:104480000298401E029002705CEA0100F0D102988E
:1044900006A9081A00F1200A600702D524F4803426
:1044A00000E00127574502DDA7EB0A0000E00020ED
:1044B00000EB0A01009005984144401A0590E00382
:1044C00006D45B462146179A059800F0B3F90544D7
:1044D000002706E001A85A46C05D179990476D1C59
:1044E0007F1C4745F6DBE0030CD55B462146179A57
:1044F000059800F09FF9054404E030205A461799CA
:1045000090476D1C0099481E00900029F5DC08E0DA
:10451000029802995A460078491C029117999047CF
:104520006D1CBAF10001AAF1010AF1DC65E100009D
:104530000928010030313233343536373839616279
:10454000636465660000000030313233343536373D
:1045500038394142434445460000000000F058F914
:104560000544761C307800287FF4ECAD19B028465D
:10457000BDE8F08F620700D4062709F1070222F098
:10458000070CFCE80223E14603F000485FEA080C50
:1045900002D00FF2702C0DE05FEA045C02D50FF23E
:1045A000682C07E05FEAC47C02D00FF2602C01E0C7
:1045B000AFF2700C4FF0FF3823F00043CDF850C03D
:1045C00065280CD006DC452809D046281DD0472890
:1045D0003DD13DE0662818D067287ED138E0002123
:1045E000112F01DB112000E0781CCDE9000106A9A4
:1045F0000EA8FFF7DDFCDDE90F010E9A0391002103
:10460000009207F1010A04914DE04FF0004000973D
:10461000CDE9011006A90EA8FFF7CAFCDDE90F02DB
:1046200003920E9B11990022DDF80CA000930492D6
:1046300011B9791C00EB010AB7EB0A0004D4C0F1F0
:10464000FF3007F1010A0490AAEB0700019044E053
:10465000012F00DA01270021112F01DD112000E0D8
:104660003846CDE9000106A90EA8FFF7A1FCDDE957
:104670000F010E9A0391002104910092BA4621077E
:104680000CD40399514500DA8A46BAF1010F05DDD1
:10469000009AAAF10101515C302908D0B84202DA2F
:1046A00010F1040F06DA0121CDE9011015E0AAF19D
:1046B0000101E9E7002805DC049901440491AAEB13
:1046C000000102E0411C514500DD8A460499401A70
:1046D000401C01904FF000400290200704D4019844
:1046E000504501DBCDF8048000208DF84F00029882
:1046F0000DF14F07B0F1004F25D02B200E900298FE
:104700004FF0020800280CDA404202902D200E9053
:1047100007E00A210298FCF780FE3031029007F88A
:10472000011DB8F10001A8F10108F2DC029800288F
:10473000EFD1791E0E980870307800F0200040F01C
:10474000450007F8020D12A8C01B00F107081498D5
:10475000007800B1012000EB0A01019801EBE07143
:1047600005984144401A401E0590E00306D45B467C
:104770002146179A059800F05DF8054414980078D2
:1047800018B15A46179990476D1CE00324D55B4633
:104790002146179A059800F04DF805441CE004984E
:1047A000002807DBDDE90301884203DD0098405C57
:1047B000179901E0179930205A469047049805F15F
:1047C0000105401C04900198401E019004D12E2048
:1047D0005A46179990476D1CBAF10001AAF1010AD7
:1047E000DDDC05E017F8010B5A46179990476D1C60
:1047F000B8F10001A8F10108F4DC5B462146179AE4
:104800000598ABE62D0000002B0000002000000002
:104810002DE9F041044600251E461746880404D4BD
:1048200005E039462020B0476D1C641EF9D52846A6
:10483000BDE8F0812DE9F041044600251E46904672
:10484000C80301D5302700E02027880404D505E0FF
:1048500041463846B0476D1C641EF9D52846BDE870
:10486000F0814A68002A06D00A68531C0B60107059
:104870004868401E4860704730B587B04FF4806587
:10488000002429466846FBF743FE2D4A2346A2F53D
:1048900080516846FBF71AFE2A462A492848FBF74A
:1048A000EFFC284DDFED280A05F5C05495ED000A10
:1048B00020EE200A84ED000A10EE100AFCF77EFDBF
:1048C00041EC100B002153EC102B20A0FFF706FB4E
:1048D000DFED210A012000BF05EB002191ED000A68
:1048E00004EB8001401C20EE200A062820EE000A7E
:1048F00081ED000AF0DB94ED020AD4ED030A94ED99
:10490000011A30EE200AD4ED040A30EE200AD4ED6C
:10491000050A70EE200A80EE810AFFF717FB0F48A8
:1049200080ED010A10EE100AFCF748FD41EC100B77
:104930000BA053EC102BFFF7D1FA07B030BD0000ED
:1049400048140020482400200000803A556F256458
:10495000203D2025660D0A000000003B00000020DD
:10496000544844203D2025660D0A000070B50546D8
:1049700000244FF47A7603E0304600F005F8641C1A
:10498000AC42F9D370BD000070B54FF0E0240022B6
:1049900065690949A36909684843A1699942FCD03E
:1049A00002D2A3EB010302E0A5EB010633441A4453
:1049B0000B468242F1D370BD3C04002010B505289F
:1049C0004DD2DFE800F0031D202932001023002221
:1049D00019461046FEF7DAFF10230B221946184637
:1049E000FEF7D4FF10230C2219462020FEF7CEFF3D
:1049F0001023BDE810401AA219463020FFF72EB848
:104A00001023032201E01023052210210020FEF7CD
:104A1000BDFF1023042210E01023072219460020B6
:104A2000FEF7B4FF1023082207E0102309221946DD
:104A30000020FEF7ABFF10230A2210210846FEF7E4
:104A4000A5FF10230B2219462020FEF79FFF1023FD
:104A50000C22BDE8104019463020FEF797BF10BD6C
:104A60002020000013B54FF6FF730122694602486B
:104A7000FEF7E8FB00981CBD9C3D00202DED048B4B
:104A800082B0FDF733FEFFF771F8FEF739FDFEF750
:104A900021FDFEF7EDFCFEF7FFFDFEF72FFEFEF712
:104AA000C7FDFEF72DFCFEF77BFE3148FEF7FEF951
:104AB0003048FEF7E9F94FF4806842462E492F4806
:104AC000FDF730FA2E480078FFF716F8FEF7E2FE01
:104AD000DFF8B0902C4D00BF99F80000FFF76EFF93
:104AE000FEF7D8FE287801280AD00228F4D1214800
:104AF000FEF7CAF9424620492048FDF713FAEBE7D2
:104B00001D4E9FED228B9FED239B0024A6F5405761
:104B100036F81400FCF745FC53EC182BFCF7CFFBE0
:104B200053EC192BFCF7CBFBFCF75BFC47F824009C
:104B3000641C4445ECDBFFF79FFE95ED010ADFEDB9
:104B4000170A20EE200A10EE100AFCF737FCCDE918
:104B5000000113A214211648FFF7D0F900211023F9
:104B6000134A0846FEF77AFF00202870B4E70000D9
:104B70001C3D00205C3D002048340020743C002097
:104B80000D0000200C000020000000206666666614
:104B900066660A40000000000000303F0000C84286
:104BA0005448443A25322E32662525202020000024
:104BB000603C0020000610160006101600000000E1
:104BC00000000000010203040607080900000000BD
:104BD00001020304000000000000000000000000CB
:104BE000000000003F400000000000000000300016
:104BF000400030004000000009000BC03D000BC029
:104C00003D00090018C024407FE0224031800000B0
:104C1000180024C01B000D803240018003801C401E
:104C200027401C800740004010006000000000008A
:104C3000000000000000000000001F802040402015
:104C40000000402020401F800000000009000600F6
:104C50001F80060009000000040004003F800400DB
:104C600004000000001000600000000000000000D0
:104C700004000400040004000400000000000040E0
:104C80000000000000000000002001C00600380005
:104C9000400000001F802040204020401F80000076
:104CA000000010403FC000400000000018C021403C
:104CB000224024401840000010802040244024401E
:104CC0001B80000002000D0011003FC001400000E9
:104CD0003C80244024402440238000001F80244046
:104CE00024403440038000003000200027C03800FA
:104CF000200000001B802440244024401B80000032
:104D00001C0022C0224022401F8000000000000042
:104D100008400000000000000000000004600000E7
:104D200000000000000004000A0011002080404044
:104D300009000900090009000900000000004040C6
:104D4000208011000A0004001800200023402400E5
:104D5000180000001F802040274029401F4000000D
:104D6000004007C039000F0001C0004020403FC094
:104D7000244024401B8000001F8020402040204011
:104D80003080000020403FC0204020401F800000B5
:104D900020403FC024402E4030C0000020403FC093
:104DA00024402E00300000000F00108020402240E0
:104DB0003380020020403FC0040004003FC0204078
:104DC000204020403FC020402040000000602020C4
:104DD00020203FC02000200020403FC024400B0086
:104DE00030C0204020403FC020400040004000C074
:104DF0003FC03C0003C03C003FC0000020403FC01B
:104E00000C4023003FC020001F8020402040204055
:104E10001F80000020403FC02440240018000000F4
:104E20001F802140214020E01FA0000020403FC003
:104E30002440260019C0004018C0244024402240CD
:104E400031800000300020403FC020403000000092
:104E500020003F80004000403F80200020003E00B6
:104E600001C0070038002000380007C03C0007C020
:104E700038000000204039C0060039C02040000042
:104E80002000384007C0384020000000304021C0DA
:104E90002640384020C00000000000007FE0402095
:104EA00040200000000070000C0003800040000063
:104EB0000000402040207FE00000000000002000B3
:104EC0004000200000000000001000100010001042
:104ED0000010001000000000400000000000000072
:104EE000000002800540054003C0004020003FC094
:104EF000044004400380000000000380044004409C
:104F00000640000000000380044024403FC00040F1
:104F100000000380054005400340000000000440FD
:104F20001FC0244024402000000002E0055005502E
:104F30000650042020403FC00440040003C000404D
:104F40000000044027C000400000000000100010D6
:104F5000041027E00000000020403FC0014007008F
:104F600004C00440204020403FC0004000400000FA
:104F700007C0040007C0040003C00000044007C0CD
:104F80000440040003C000400000038004400440CB
:104F900003800000041007F0045004400380000068
:104FA000000003800440045007F00010044007C0D4
:104FB00002400400040000000000064005400540D7
:104FC00004C00000000004001F80044000400000F6
:104FD000040007800040044007C0004004000700B0
:104FE00004C0018006000400060001C0070001C0E3
:104FF00006000000044006C0010006C00440000096
:105000000410071004E001800600040000000440C2
:1050100005C00640044000000000000004007BE0E2
:1050200040200000000000000000FFF00000000031
:10503000000040207BE004000000000040008000F1
:1050400040002000200040000000000000000000A0
:1050500000000000000000000000000000001FCC65
:10506000000C00000000000000000800300060009C
:105070000800300060000000022003FC1E20022017
:1050800003FC1E200220000000000E1811043FFF48
:1050900010840C78000000000F0010840F3800C04E
:1050A000077818840078000000780F8410C4112459
:1050B0000E9800E4008400080800680070000000FA
:1050C000000000000000000000000000000007E0F9
:1050D00018182004400200000000400220041818A4
:1050E00007E00000000000000240024001800FF0D5
:1050F00001800240024000000080008000800FF824
:1051000000800080008000000001000D000E000003
:10511000000000000000000000000080008000800F
:1051200000800080008000800000000C000C000067
:1051300000000000000000000000000600180060F1
:105140000180060018002000000007F00808100485
:105150001004080807F000000000080408041FFC01
:10516000000400040000000000000E0C10141024C5
:10517000104411840E0C000000000C1810041104DF
:10518000110412880C700000000000E003200424C9
:1051900008241FFC0024000000001F981084110444
:1051A0001104108810700000000007F00888110436
:1051B000110418880070000000001C00100010FC92
:1051C00013001C001000000000000E381144108471
:1051D000108411440E38000000000700088C1044B1
:1051E0001044088807F00000000000000000030CD5
:1051F000030C000000000000000000000001010698
:1052000000000000000000000000008001400220BB
:1052100004100808100400000220022002200220CE
:1052200002200220022000000000100408080410E0
:10523000022001400080000000000E001200100C4F
:10524000106C10800F00000003E00C1813E414240D
:1052500017C4082807D000000004003C03C41C4009
:10526000074000E4001C000410041FFC110411049A
:1052700011040E880070000003E00C1810041004E4
:10528000100410081C10000010041FFC100410046F
:105290001004080807F0000010041FFC110411049A
:1052A00017C410040818000010041FFC110411009A
:1052B00017C010000800000003E00C1810041004D0
:1052C00010441C780040000010041FFC1084008073
:1052D000008010841FFC10040000100410041FFC48
:1052E0001004100400000000000300011001100170
:1052F0001FFE10001000000010041FFC11040380AA
:105300001464181C1004000010041FFC1004000496
:1053100000040004000C000010041FFC1F0000FC2F
:105320001F001FFC1004000010041FFC0C040300ED
:1053300000E010181FFC100007F00808100410040B
:105340001004080807F0000010041FFC10841080EF
:10535000108010800F00000007F00818102410249F
:10536000101C080A07F2000010041FFC11041100B1
:1053700011C011300E0C000400000E1C110410842A
:10538000108410441C3800001800100010041FFC8A
:10539000100410001800000010001FF81004000492
:1053A000000410041FF8100010001E0011E0001C83
:1053B000007013801C0010001FC0103C00E01F0094
:1053C00000E0103C1FC000001004180C163401C08F
:1053D00001C01634180C100410001C00130400FC4B
:1053E00013041C00100000000804101C106410843A
:1053F00013041C04101800000000000000007FFED1
:105400004002400240020000000030000C00038017
:105410000060001C00030000000040024002400247
:105420007FFE00000000000000000000200040009F
:1054300040004000200000000001000100010001C8
:1054400000010001000100010000400040002000B8
:10545000000000000000000000000098012401444A
:105460000144014400FC000410001FFC00880104FA
:105470000104008800700000000000700088010432
:10548000010401040088000000000070008801048D
:10549000010411081FFC0004000000F8014401444D
:1054A0000144014400C800000000010401040FFC95
:1054B0001104110411001800000000D6012901296F
:1054C000012901C90106000010041FFC008401002D
:1054D0000100010400FC000400000104190419FC8F
:1054E00000040004000000000000000300010101AE
:1054F000190119FE0000000010041FFC00240040E8
:1055000001B4010C010400000000100410041FFC91
:105510000004000400000000010401FC010401007B
:1055200001FC0104010000FC010401FC00840100F5
:105530000100010400FC0004000000F80104010463
:105540000104010400F80000010101FF00850104CD
:105550000104008800700000000000700088010451
:105560000104010501FF00010104010401FC0084A4
:105570000104010001800000000000CC012401248E
:10558000012401240198000000000100010007F837
:105590000104010400000000010001F800040004FF
:1055A0000004010801FC0004010001800170000CEE
:1055B000001001600180010001F0010C003001C009
:1055C0000030010C01F0010000000104018C0074A6
:1055D0000170018C01040000010101810171000EC4
:1055E000001801600180010000000184010C0134F9
:1055F00001440184010C00000000000000000000D4
:1056000001003EFC400240020000000000000000DB
:10561000FFFF0000000000000000400240023EFCCE
:105620000100000000000000000060008000800019
:1056300040004000200020000000000000000000AA
:10564000000000000000000000000000000000005A
:10565000000000000000000000000000000000004A
:1056600000000000000000000000000F80380FFE66
:10567000380F80380000000000000000000000002B
:105680000000000000000100000600000C000038CF
:1056900000003100000600000C000038000030005F
:1056A000000000000000000061800067F807F9803A
:1056B0000061800061800061800061800067F80700
:1056C000F98000618000000000000000000001C0BF
:1056D000E003E0F00630080418081FFFFE040E087F
:1056E0000787F00381E000000000000001F00006E1
:1056F0000C00040408060C7001F9C0000E00003B09
:10570000E000EC18070808040C180003E000000093
:105710000001E00007F003F818041C08041708074C
:10572000E1D003C0E00023B0003C080020080000E6
:1057300010000000000000010000310000320000F5
:105740001C0000000000000000000000000000003D
:105750000000000000000000000000000000000049
:1057600000000000000000007F0001FFC00780F083
:105770000C001810000420000200000000000020AF
:1057800000021000040C00180780F001FFC0007F29
:105790000000000000000000000000000000000009
:1057A000000000004200006600006600003C0000AF
:1057B000180003FFC0001800003C000066000066EF
:1057C000000042000000000008000008000008007F
:1057D00000080000080001FFC000080000080000E9
:1057E00008000008000008000000000000010000A0
:1057F0003100003200001C0000000000000000002A
:105800000000000000000000000000000000000098
:105810000800000800000800000800000800000858
:105820000000080000080000080000080000000058
:1058300000000000000000003800003800003800C0
:105840000000000000000000000000000000000058
:105850000000000000000000000600001C000070B6
:10586000000180000E0000380000C0000700001C8E
:105870000000300000000000000000007F8001FFF9
:10588000E0038070060018040008040008060018F1
:1058900003807001FFE0007F800000000000000036
:1058A000000001000801000801000803FFF807FFDD
:1058B000F8000008000008000008000000000000D8
:1058C00000000001C03802C0580400980401180408
:1058D0000218040418061C1803F81801E0F8000068
:1058E0000000000000000001C0E003C0F004000858
:1058F00004080804080806180803F41801E7F00073
:1059000001E0000000000000000000000300000DA6
:105910000000110000610000810803010807FFF882
:105920000FFFF8000108000108000000000000005F
:1059300000E007FCD006080806100806100806104C
:1059400008061838060FF00607C000000000000027
:10595000000000003F8001FFE003843002081804CB
:105960001008041008041008071810030FF00007AF
:10597000C000000000000000000003C0000700009D
:105980000600000600F80607F806180006E0000703
:10599000000006000000000000000001E1E003F745
:1059A000F0063410041808041808040C08040C0845
:1059B00006161803F3F001C1E0000000000000002B
:1059C000F80003FC3003063804020804020804024D
:1059D000080404100308F001FFC0007F000000006D
:1059E00000000000000000000000000000000000B7
:1059F00070380070380070380000000000000000AF
:105A00000000000000000000000000000000000096
:105A100000000000301A00301C00000000000000F0
:105A2000000000000000000000000000000000086E
:105A300000001400002200004100008080010040AE
:105A40000200200400100800080000000000000010
:105A50002100002100002100002100002100002180
:105A600000002100002100002100002100000000B2
:105A700000000000000008000804001002002001DF
:105A80000040008080004100002200001400000857
:105A90000000000000000003C00004C0000400007B
:105AA000080038080F380808380810000C300007C4
:105AB000E00003C000000000000000003F8000FF85
:105AC000E0038070020F1006708804C08804830809
:105AD000047F8802C09003012000FE4000000800FF
